{
  "contractName": "Bank",
  "abi": [
    {
      "inputs": [
        {
          "internalType": "address",
          "name": "",
          "type": "address"
        }
      ],
      "name": "accounts",
      "outputs": [
        {
          "internalType": "uint256",
          "name": "",
          "type": "uint256"
        }
      ],
      "stateMutability": "view",
      "type": "function",
      "constant": true
    },
    {
      "inputs": [],
      "name": "deposit",
      "outputs": [],
      "stateMutability": "payable",
      "type": "function",
      "payable": true
    },
    {
      "inputs": [
        {
          "internalType": "uint256",
          "name": "_amount",
          "type": "uint256"
        }
      ],
      "name": "withdraw",
      "outputs": [],
      "stateMutability": "nonpayable",
      "type": "function"
    },
    {
      "inputs": [],
      "name": "checkAssets",
      "outputs": [
        {
          "internalType": "uint256",
          "name": "",
          "type": "uint256"
        }
      ],
      "stateMutability": "view",
      "type": "function",
      "constant": true
    }
  ],
  "bytecode": "0x608060405234801561001057600080fd5b50610491806100206000396000f3fe60806040526004361061003f5760003560e01c80632e1a7d4d146100445780635e5c06e21461006d57806371aa8fd9146100aa578063d0e30db0146100d5575b600080fd5b34801561005057600080fd5b5061006b60048036038101906100669190610276565b6100df565b005b34801561007957600080fd5b50610094600480360381019061008f919061024d565b6101ac565b6040516100a191906102f1565b60405180910390f35b3480156100b657600080fd5b506100bf6101c4565b6040516100cc91906102f1565b60405180910390f35b6100dd6101cc565b005b806000803373ffffffffffffffffffffffffffffffffffffffff1673ffffffffffffffffffffffffffffffffffffffff16815260200190815260200160002054811115610161576040517f08c379a0000000000000000000000000000000000000000000000000000000008152600401610158906102d1565b60405180910390fd5b3373ffffffffffffffffffffffffffffffffffffffff166108fc839081150290604051600060405180830381858888f193505050501580156101a7573d6000803e3d6000fd5b505050565b60006020528060005260406000206000915090505481565b600047905090565b346000803373ffffffffffffffffffffffffffffffffffffffff1673ffffffffffffffffffffffffffffffffffffffff168152602001908152602001600020600082825461021a919061031d565b92505081905550565b6000813590506102328161042d565b92915050565b60008135905061024781610444565b92915050565b60006020828403121561025f57600080fd5b600061026d84828501610223565b91505092915050565b60006020828403121561028857600080fd5b600061029684828501610238565b91505092915050565b60006102ac60338361030c565b91506102b7826103de565b604082019050919050565b6102cb816103a5565b82525050565b600060208201905081810360008301526102ea8161029f565b9050919050565b600060208201905061030660008301846102c2565b92915050565b600082825260208201905092915050565b6000610328826103a5565b9150610333836103a5565b9250827fffffffffffffffffffffffffffffffffffffffffffffffffffffffffffffffff03821115610368576103676103af565b5b828201905092915050565b600061037e82610385565b9050919050565b600073ffffffffffffffffffffffffffffffffffffffff82169050919050565b6000819050919050565b7f4e487b7100000000000000000000000000000000000000000000000000000000600052601160045260246000fd5b7f596f75206861766520696e73756666696369656e742066756e647320746f206d60008201527f616b6520746865207472616e73616374696f6e00000000000000000000000000602082015250565b61043681610373565b811461044157600080fd5b50565b61044d816103a5565b811461045857600080fd5b5056fea26469706673582212208962cdfbefd8cb0dcd3a389e60e84d4c042f5af372d5354bcd79f1ffb8ab9f9264736f6c63430008040033",
  "immutableReferences": {},
  "source": "// SPDX-License-Identifier: MIT\r\npragma solidity ^0.8.4;\r\n\r\ncontract Bank {\r\n    //mapp the balance in the account\r\n    mapping(address => uint) public accounts;\r\n    //modifier to check funds\r\n    modifier hasFunds(uint amount) {\r\n        require(amount <= accounts[msg.sender] , \"You have insufficient funds to make the transaction\");\r\n        _;\r\n    }\r\n    //deposit function\r\n    function deposit() public payable {\r\n        accounts[msg.sender] += msg.value;\r\n    }\r\n    //withdraw function\r\n    function withdraw(uint _amount) public hasFunds(_amount) {\r\n        payable (msg.sender).transfer(_amount);\r\n    }\r\n    //checkAssets function\r\n    function checkAssets() public view returns(uint) {\r\n        return address(this).balance;\r\n    }\r\n\r\n}",
  "sourcePath": "C:\\Users\\ACER\\Documents\\code\\solidity-bank\\contracts\\Bank.sol",
  "compiler": {
    "name": "solc",
    "version": "0.8.4+commit.c7e474f2.Emscripten.clang"
  },
  "schemaVersion": "3.4.4",
  "updatedAt": "2021-12-30T09:44:05.597Z",
  "networkType": "ethereum",
  "devdoc": {
    "kind": "dev",
    "methods": {},
    "version": 1
  },
  "userdoc": {
    "kind": "user",
    "methods": {},
    "version": 1
  }
}